:100000000C943A000C9457000C9457000C94570031
:100010000C9457000C9457000C9457000C94570004
:100020000C9457000C9457000C9457000C940F023A
:100030000C9457000C9457000C9457000C945700E4
:100040000C9457000C9457000C947C050C945700AA
:100050000C9457000C9457000C9457000C945700C4
:100060000C9457000C9457006364696E6F7073753D
:1000700078585B0011241FBECFEFD8E0DEBFCDBFA4
:1000800012E0A0E0B1E0EAEAF9E102C005900D92C9
:10009000A234B107D9F722E0A2E4B2E001C01D9278
:1000A000A635B207E1F70E94E3040C94D30C0C943C
:1000B00000001092B90088E98093B80084E0809332
:1000C000BC00089584EA8093BC008091BC00882322
:1000D000E4F708958093BB0084E88093BC0080918E
:1000E000BC008823E4F70895811104C084EC809358
:1000F000BC0003C084E88093BC008091BC008823CE
:10010000E4F78091BB00089584E98093BC000895D2
:10011000982F92959F70990F292F220F220F920FDF
:100120008F70890F08959DEC899F912D11249695CC
:100130009695969520E1929FA0011124990F292F61
:10014000220F220F920F891B842B0895CF92DF92EA
:10015000EF92FF920F931F93CF93DF93CDB7DEB74C
:10016000C054D1090FB6F894DEBF0FBECDBF0E94B8
:10017000620080ED90E00E946A0080E090E00E94C2
:100180006A000E94620081ED90E00E946A0080E0B7
:1001900090E00E9474000E948800C82E80E090E0E9
:1001A0000E9474000E948800D82E80E090E00E9497
:1001B00074000E948800E82E80E090E00E947400A5
:1001C00080E090E00E9474000E948800182F80E078
:1001D00090E00E9474000E948800082F81E090E067
:1001E0000E9474000E948800F82E0E9484001F92D2
:1001F000CF921F92DF921F92EF921F92FF921F9257
:100200000F931F921F9386E091E09F938F938E012F
:100210000F5F1F4F1F930F930E94B506C8010E94E6
:1002200030020FB6F894DEBF0FBECDBFC05CDF4F0B
:100230000FB6F894DEBF0FBECDBFDF91CF911F91F7
:100240000F91FF90EF90DF90CF900895EF92FF9283
:100250001F93CF93DF93182FD62FC42F0E946200D5
:1002600080ED90E00E946A008FE090E00E946A00BA
:100270000E94620081ED90E00E946A0081E090E0BF
:100280000E9474007C010E9484000E94620080ED44
:1002900090E00E946A008FE090E00E946A00C7012F
:1002A0008E7F99270E946A000E9484000E9462004B
:1002B00080ED90E00E946A0087E090E00E946A0072
:1002C000812F0E94930090E00E946A008D2F0E946F
:1002D000930090E00E946A008C2F0E94930090E0AF
:1002E0000E946A0080E890E00E946A000E948400F8
:1002F0000E94620080ED90E00E946A008EE090E033
:100300000E946A0085E090E00E946A000E948400DA
:1003100083E391E00E943002DF91CF911F91FF9023
:10032000EF9008951F93CF93DF93182FD62FC42FEC
:100330000E94620080ED90E00E946A0080E090E000
:100340000E946A00812F0E94930090E00E946A0040
:100350008D2F0E94930090E00E946A008C2F0E94D3
:10036000930090E00E946A000E948400DF91CF9188
:100370001F910895CF93DF930E94620080ED90E07B
:100380000E946A008FE090E00E946A000E94620072
:1003900081ED90E00E946A0081E090E00E9474008C
:1003A000EC010E948400C0FF13C00E94620080ED37
:1003B00090E00E946A008FE090E00E946A00CE0107
:1003C0008E7F99270E946A000E94840081E001C00C
:1003D00080E0DF91CF91089510928000E1E8F0E095
:1003E00080818860808380818360808387EA91E652
:1003F0009093890080938800EFE6F0E0808182602E
:100400008083109250028AE0809351020895809177
:100410005002882319F01092500281E008951F9233
:100420000F920FB60F9211248F9380915102815039
:1004300080935102811106C081E0809350028AE0CE
:10044000809351028F910F900FBE0F901F901895BF
:100450008091C00085FFFCCF08958093C600089569
:10046000EF92FF920F931F93CF937C01C0E007C0E0
:100470000E942802F80180810E942D02CF5F87012F
:100480000C0F111DF80180818111F2CFCF911F91C6
:100490000F91FF90EF900895E1ECF0E088E1808308
:1004A00086E08093C20087E68093C40080818068E4
:1004B0008083089586E591E00E9430028EE392E009
:1004C0000E94300282E791E00E9430028EE392E0C7
:1004D0000E94300285E791E00E9430028EE392E0B4
:1004E0000E94300289E791E00E9430028EE392E0A0
:1004F0000E94300282E891E00E9430028EE392E096
:100500000E94300208950F931F93CF93DF93EC0165
:100510008B0162E771E00E94AC06892B31F4F8018F
:100520001182108281E090E02DC065E771E0CE017C
:100530000E94AC06892B31F481E090E0F8019183B0
:10054000808320C069E771E0CE010E94AC06892B50
:1005500041F482E090E0F8019183808381E090E0B3
:1005600011C062E871E0CE010E94AC06892B41F413
:1005700083E090E0F8019183808381E090E002C005
:1005800080E090E0DF91CF911F910F910895CF937C
:10059000DF93FC019091C0009923E4F72091C600FD
:1005A0009091C00095FFFCCF2D3029F1283091F4B7
:1005B00080914B0290914C02892BB9F12093C60097
:1005C00080914B0290914C02019790934C02809342
:1005D0004B022BC02A3049F12093C60080914B0278
:1005E00090914C02E80FF91F2083019690934C02E2
:1005F00080934B021AC0EA01CF012093C600E0911C
:100600004B02F0914C02E80FF91F10820E94830206
:10061000892B19F01982188204C081E090E0998337
:10062000888310924C0210924B02DF91CF91089573
:10063000CF92DF92EF92FF920F931F93CF93DF93AE
:1006400000D0CDB7DEB7D82EC92E8B017A011A8221
:100650001982FB0180819181892B81F4809149026B
:1006600090914A02892B51F483E090E090934A02E2
:10067000809349028FE991E00E943002F801808165
:100680009181019709F09AC01182108280914902EC
:1006900090914A028330910561F5CE0101969F93B6
:1006A0008F938CE891E09F938F93CF92DF920E947B
:1006B000D7062981822F9A810F900F900F900F906B
:1006C0000F900F90CC9780F42093480280914902BC
:1006D00090914A02019790934A028093490281ECDB
:1006E00091E00E9430026AC08FE891E00E943002DF
:1006F00065C08230910561F5CE0101969F938F937D
:100700008CE891E09F938F93CF92DF920E94D7065F
:100710002981822F9A810F900F900F900F900F9048
:100720000F90CC9780F420934702809149029091DA
:100730004A02019790934A028093490285E092E031
:100740000E9430023BC081EB91E00E94300236C033
:100750000197A1F5CE0101969F938F938CE891E0CC
:100760009F938F93CF92DF920E94D7064981842F67
:100770009A810F900F900F900F900F900F904897C5
:10078000C8F48091490290914A02019790934A02DD
:10079000809349028FEF9FEFF701918380836091EF
:1007A0004702809148020E94920182ED91E00E94EE
:1007B000300204C085EF91E00E9430020F900F904C
:1007C000DF91CF911F910F91FF90EF90DF90CF902D
:1007D0000895CF92DF92EF92FF920F931F93CF93E2
:1007E000DF93CDB7DEB7C254D1090FB6F894DEBFA0
:1007F0000FBECDBFD82EC92E8B017A011A82198265
:10080000FB0180819181892B81F480914502909137
:100810004602892B51F483E090E090934602809346
:1008200045028FE991E00E943002F80180819181B8
:10083000019709F0B8C01182108280914502909111
:1008400046028330910561F5CE0101969F938F9307
:100850008CE891E09F938F93CF92DF920E94D7060E
:100860002981822F9A810F900F900F900F900F90F7
:100870000F90CC9780F42093440280914502909190
:1008800046020197909346028093450281EC91E0E5
:100890000E94300288C08FE891E00E94300283C03D
:1008A0008230910561F5CE0101969F938F938CE87C
:1008B00091E09F938F93CF92DF920E94D706298178
:1008C000822F9A810F900F900F900F900F900F90A2
:1008D000CC9780F420934302809145029091460288
:1008E0000197909346028093450285E092E00E9432
:1008F000300259C081EB91E00E94300254C0019750
:1009000009F051C0CE0101969F938F938CE891E03E
:100910009F938F93CF92DF920E94D7064981842FB5
:100920009A810F900F900F900F900F900F90489713
:10093000B0F54093420280914502909146020197A2
:1009400090934602809345028FEF9FEFF7019183CA
:10095000808360914302809144020E94260180912D
:1009600044021F928F93809143021F928F93809134
:1009700042021F928F9383E192E09F938F938E01A7
:100980000D5F1F4F1F930F930E94B506C8010E9471
:1009900030020FB6F894DEBF0FBECDBF04C085EFA6
:1009A00091E00E943002CE5BDF4F0FB6F894DEBFBD
:1009B0000FBECDBFDF91CF911F910F91FF90EF90B0
:1009C000DF90CF900895CF93DF9300D000D0CDB7C4
:1009D000DEB70E944C020E94EC01789484E190E022
:1009E0000E948B057C018FEF9FEF9A8389831C8285
:1009F0001B820E9459000E94620080ED0E946A00E2
:100A00008EE00E946A0084E00E946A000E948400D6
:100A10000E94620080ED0E946A008FE00E946A00DE
:100A200080E00E946A000E9484000E945A020E9494
:100A30000702082F10E080914F02882359F0AE0181
:100A40004D5F5F4FBE016F5F7F4FC7010E94C702BE
:100A500010924F0289819A81892B29F40115110581
:100A600011F00E94A60089819A81019721F48FEFED
:100A70009FEF9A83898389819A81029749F4AE0115
:100A80004F5F5F4FBE016D5F7F4FC7010E9418032C
:100A900089819A81039749F4AE014F5F5F4FBE0190
:100AA0006D5F7F4FC7010E94E903012B09F4BFCF9F
:100AB0000E94BA01882329F081E080934E021092AF
:100AC0004D0280914E02882309F4B1CF80914D02EE
:100AD000853008F0ACCF88E392E00E94300280912C
:100AE0004D028F5F80934D0280914D02853008F456
:100AF0009ECF10924E029BCF1F920F920FB60F9275
:100B000011248F9381E080934F028F910F900FBE3D
:100B10000F901F9018950F931F93CF93DF93823000
:100B2000910510F482E090E0E0915402F0915502BA
:100B300020E030E0A0E0B0E0309719F14081518131
:100B40000281138148175907C8F08417950769F483
:100B5000109731F012960C93129713961C9327C09E
:100B6000009354021093550222C02115310519F04B
:100B70004217530718F49A01BD01EF01DF01F80194
:100B8000DBCF21153105F9F0281B390B2430310555
:100B900080F48A819B816115710521F0FB019383AB
:100BA000828304C09093550280935402FE013296D2
:100BB00044C0FE01E20FF31F81939193225031094B
:100BC000398328833AC02091520230915302232B5B
:100BD00041F420910201309103013093530220939C
:100BE000520220910001309101012115310541F49B
:100BF0002DB73EB74091040150910501241B350BE0
:100C0000E0915202F0915302E217F307A0F42E1B79
:100C10003F0B2817390778F0AC014E5F5F4F241760
:100C2000350748F04E0F5F1F509353024093520216
:100C30008193919302C0E0E0F0E0CF01DF91CF918A
:100C40001F910F910895CF93DF93009709F481C00E
:100C5000FC01329713821282A0915402B091550286
:100C6000109781F420813181820F931F20915202CD
:100C7000309153022817390751F5F0935302E0934E
:100C8000520267C0ED0120E030E0CE17DF0740F4EC
:100C90004A815B819E0141155105F1F0EA01F5CFD2
:100CA000D383C28340815181840F951FC817D90710
:100CB00059F488819981840F951F029691838083CE
:100CC0008A819B81938382832115310529F4F093D6
:100CD0005502E09354023DC0E901FB83EA83499148
:100CE0005991C40FD51FEC17FD0761F480819181E4
:100CF000840F951F0296E9019983888382819381ED
:100D00009B838A83E0E0F0E012968D919C9113978B
:100D1000009719F0FD01DC01F7CF8D919C9111979F
:100D20009D012E5F3F4F820F931F20915202309101
:100D300053022817390769F4309729F410925502A5
:100D40001092540202C013821282B0935302A093F5
:100D50005202DF91CF910895FB01DC018D9101904A
:100D600080190110D9F3990B0895AEE0B0E0EBEBD8
:100D7000F6E00C94AA0C0D891E8986E08C831A83F8
:100D800009838FEF9FE79E838D83AE01475E5F4FA0
:100D90006F89788DCE0101960E94F006EF81F8856B
:100DA000E00FF11F10822E96E4E00C94C60CAEE02A
:100DB000B0E0EDEDF6E00C94AC0C85E08C838B8913
:100DC0009C899A838983AE01495E5F4F6D897E89D4
:100DD000CE0101960E946D0A2E96E2E00C94C80C9A
:100DE000ABE0B0E0E6EFF6E00C949C0C6C017B010C
:100DF0008A01FC0117821682838181FFCCC1CE015A
:100E000001963C01F6019381F70193FD859193FFD3
:100E100081917F01882309F4BAC1853239F493FDA9
:100E2000859193FF81917F01853229F4B60190E08D
:100E30000E94E60BE7CF912C212C312CFFE1F3151A
:100E4000D8F08B3279F038F4803279F08332A1F423
:100E5000232D20611DC08D3261F0803369F4232D74
:100E6000216016C0832D8260382EE32DE4603E2E73
:100E70002AC0F32DF8601DC037FC2DC020ED280FCF
:100E80002A3040F08E32B9F436FC81C1232D206423
:100E9000322E19C036FE06C08AE0989E200D11241D
:100EA000922E11C0EAE02E9E200D1124222EF32D49
:100EB000F0623F2E08C08C3621F4832D8068382ED6
:100EC00002C0883641F4F70193FD859193FF81912B
:100ED0007F018111B3CF982F9F7D9554933028F4D3
:100EE0000C5F1F4F9FE399830DC0833631F083372A
:100EF00071F0833509F059C021C0F80180818983E0
:100F00000E5F1F4F88248394912C530113C0280136
:100F1000F2E04F0E511CF801A080B18036FE03C0F4
:100F2000692D70E002C06FEF7FEFC5010E949D0B3D
:100F30004C018201F32DFF773F2E16C0280122E0DD
:100F4000420E511CF801A080B18036FE03C0692D0D
:100F500070E002C06FEF7FEFC5010E94920B4C0161
:100F6000F32DF0683F2E820133FC1BC0822D90E0F0
:100F700088169906B0F4B60180E290E00E94E60B74
:100F80002A94F4CFF50137FC859137FE81915F01FA
:100F9000B60190E00E94E60B21102A9421E0821A0B
:100FA00091088114910471F7E8C0843611F08936F4
:100FB00041F5F80137FE07C060817181828193811C
:100FC0000C5F1F4F08C060817181072E000C880BD9
:100FD000990B0E5F1F4FF32DFF763F2E97FF09C031
:100FE00090958095709561957F4F8F4F9F4FF068DA
:100FF0003F2E2AE030E0A3010E943B0C882E861889
:1010000045C0853731F4232D2F7EB22E2AE030E003
:1010100025C0932D997FB92E8F36C1F018F48835ED
:1010200079F0B5C0803719F0883721F0B0C0E92FCA
:10103000E061BE2EB4FE0DC0FB2DF460BF2E09C0D2
:1010400034FE0AC0292F2660B22E06C028E030E008
:1010500005C020E130E002C020E132E0F801B7FE37
:1010600007C060817181828193810C5F1F4F06C030
:101070006081718180E090E00E5F1F4FA3010E94AC
:101080003B0C882E8618FB2DFF773F2E36FE0DC0B9
:10109000232D2E7FA22E891458F434FE0BC032FC6F
:1010A00009C0832D8E7EA82E05C0B82CA32C03C0AA
:1010B000B82C01C0B92CA4FE0FC0FE01E80DF11D33
:1010C0008081803321F49A2D997EA92E09C0A2FE39
:1010D00006C0B394B39404C08A2D867809F0B39403
:1010E000A3FC11C0A0FE06C0B21488F4280C922CF8
:1010F0009B180EC0B21460F4B60180E290E00E942A
:10110000E60BB394F7CFB21418F42B1802C0982C46
:10111000212CA4FE10C0B60180E390E00E94E60BF3
:10112000A2FE17C0A1FC03C088E790E002C088E5DA
:1011300090E0B6010CC08A2D867859F0A1FE02C05D
:101140008BE201C080E2A7FC8DE2B60190E00E9434
:10115000E60B891438F4B60180E390E00E94E60BB8
:101160009A94F7CF8A94F301E80DF11D8081B601BE
:1011700090E00E94E60B8110F5CF222009F442CEC8
:10118000B60180E290E00E94E60B2A94F6CFF601C9
:101190008681978102C08FEF9FEF2B96E2E10C943E
:1011A000B80C20FD09C0FC0123FD05C022FF02C0D0
:1011B0007383628351834083089544FD17C046FDC5
:1011C00017C0AB01BC01DA01FB01AA0FBB1FEE1F68
:1011D000FF1F1094D1F74A0F5B1F6E1F7F1FCB01BB
:1011E000BA01660F771F881F991F09C033E001C03D
:1011F00034E0660F771F881F991F3150D1F7620FB7
:10120000711D811D911D08950F931F93CF93DF933F
:101210008C01C8010E94A80BEC0197FD08C00E9438
:101220007E0B892BB1F7B801CE010E94220CCE01B2
:10123000DF91CF911F910F9108958F929F92AF925E
:10124000BF92EF92FF920F931F93CF93DF938C0186
:10125000D62F7A01B22E0E94A80B9C0133272B3285
:10126000310531F02D32310561F48B2D8068B82EB7
:10127000D15011F480E068C0C8010E94A80B97FD0E
:10128000F9CFCB2DCD7F2B2D207309F58033F9F4C9
:10129000AA24AA94AD0E09F443C0C8010E94A80B69
:1012A00097FD3EC09C012F7D33272835310549F439
:1012B000C264D250A9F1C8010E94A80B97FF07C0D1
:1012C0002FC0B6FE02C0C26001C0C261DA2D812CFF
:1012D000912C540120ED280F283080F0C4FF04C069
:1012E000B8010E94220C19C02A3040F0C6FFF8CF86
:1012F0002F7D3FEE320F363098F727504C2FC50127
:10130000B4010E94DD084B015C01C260D15059F06C
:10131000C8010E94A80B97FFDDCFC1FD04C0AACF72
:10132000812C912C5401C7FF08C0B094A0949094D4
:101330008094811C911CA11CB11C2C2FB501A4010F
:10134000C7010E94D10881E0DF91CF911F910F91D9
:10135000FF90EF90BF90AF909F908F900895A0E284
:10136000B0E0E5EBF9E00C949F0C5C01962E7A015D
:10137000F9018E010F5F1F4F680180E2D8011D92B5
:101380008A95E9F7D50113968C9080E090E0612C66
:10139000712C30E061E070E083FC259183FE2191A7
:1013A0008F01522E211103C080E090E092C02E35B3
:1013B00011F4009751F1432F50E0481759073CF4BE
:1013C0002D3559F12D3219F4772009F103C077201A
:1013D00009F46AC0452D469546954695D601A40F59
:1013E000B11D452D47708B0102C0000F111F4A959A
:1013F000E2F7A8015C91452B4C93651459F0561403
:1014000010F45394E7CF5A94E5CF31E004C0772429
:10141000739401C0712C0196BFCF772019F08E8193
:1014200080628E83311103C08824839417C0F60133
:101430009E012F5D3F4F8081809581932E173F073E
:10144000D1F7F2CFE114F10429F0D7018C93F70121
:1014500031967F019A94812C9920F9F0C5010E9460
:10146000A80B97FD18C0FC01FF2723E0F595E79531
:101470002A95E1F7EC0DFD1D208130E0AC014770AD
:10148000552702C0359527954A95E2F720FDDACF1A
:10149000B5010E94220C811087CFE114F10411F0F4
:1014A000D7011C92C80115C0422F46954695469516
:1014B000D601A40FB11D422F47708B0102C0000F4F
:1014C000111F4A95E2F7A8015C91452B4C93622EBF
:1014D000A2CFA096EFE00C94BB0CA0E0B0E0E3E755
:1014E000FAE00C949F0C6C01EB015A01FC0117828D
:1014F0001682512CF601E380FE01E3FC8591E3FEA8
:101500008191182FEF01882309F4EEC090E00E942A
:101510007E0B892B21F0C6010E940409EBCF153206
:1015200041F4FE01E3FC1591E3FE1191EF01153248
:1015300081F4C6010E94A80B97FDD4C0412F50E052
:101540009C01332724173507A9F2B6010E94220C0B
:10155000CBC01A3239F4E3FC1591E3FE1191EF018F
:1015600001E001C000E0F12C20ED210F2A3080F4D1
:1015700002606F2D70E080E090E040E20E94DD08A4
:10158000F62EFE01E3FC1591E3FE1191EF01ECCF85
:1015900001FF03C0F11003C0A7C0FF24FA9418365E
:1015A00019F01C3651F010C0FE01E3FC1591E3FE6A
:1015B0001191EF01183641F408600460FE01E3FC6C
:1015C0001591E3FE1191EF01112309F48DC0612FF4
:1015D00070E088E690E00E94870B892B09F484C0B4
:1015E00000FD07C0F50180809180C50102965C0175
:1015F00002C0812C912C1E3651F4F6014681578190
:1016000060E070E0202FC4010E94D10873CF133630
:10161000A9F401FD02C0FF24F394C6010E94A80BA7
:1016200097FD60C08114910429F0F4018083C40106
:1016300001964C01FA94F110F0CF50C01B3559F4CB
:101640009E01A4016F2DC6010E94AF09EC01892BF8
:1016500009F044C03EC0C6010E94040997FD42C083
:101660001F3661F128F4143639F1193651F128C0CA
:10167000133771F0153701F123C08114910429F05B
:10168000F4016082C40101964C01FA94FF2071F0CC
:10169000C6010E94A80B3C0197FD08C00E947E0B6A
:1016A000892B59F3B601C3010E94220C81149104C5
:1016B000A9F0F401108212C0006203C0006101C0F1
:1016C0000064202FA4016F2DC6010E941D09811105
:1016D00005C0F6018381807329F406C000FD0ACF9E
:1016E000539408CF552019F0852D90E002C08FEF5C
:1016F0009FEFCDB7DEB7EFE00C94BB0C91110C94CB
:10170000990C803219F089508550C8F70895FC0172
:101710000590061621F00020D9F7C00108953197F1
:10172000CF010895FC010590615070400110D8F779
:10173000809590958E0F9F1F0895FC016150704019
:1017400001900110D8F7809590958E0F9F1F0895F6
:10175000CF93DF93EC012B8120FF33C026FF0AC01B
:101760002F7B2B838E819F8101969F838E838A811D
:1017700090E029C022FF0FC0E881F9818081082E06
:10178000000C990B009719F420622B831AC0319634
:10179000F983E8830EC0EA85FB85099597FF09C0A8
:1017A0002B81019611F080E201C080E1822B8B83B6
:1017B00008C02E813F812F5F3F4F3F832E839927A3
:1017C00002C08FEF9FEFDF91CF9108950F931F938A
:1017D000CF93DF93FB01238121FD03C08FEF9FEFA8
:1017E0002CC022FF16C046815781248135814217C3
:1017F000530744F4A081B1819D012F5F3F4F318396
:1018000020838C93268137812F5F3F4F3783268338
:1018100014C08B01EC01FB010084F185E02D0995DA
:10182000892BE1F6D80116968D919C911797019618
:1018300017969C938E931697CE01DF91CF911F91AF
:101840000F910895FB01238120FF12C026FD10C0D7
:101850008F3F3FEF930761F082832F7D20642383C6
:1018600026813781215031093783268399270895AE
:101870008FEF9FEF0895FA01AA27283051F1203108
:1018800081F1E8946F936E7F6E5F7F4F8F4F9F4F14
:10189000AF4FB1E03ED0B4E03CD0670F781F891F56
:1018A0009A1FA11D680F791F8A1F911DA11D6A0F24
:1018B000711D811D911DA11D20D009F468943F91D7
:1018C0002AE0269F11243019305D3193DEF6CF01D6
:1018D0000895462F4770405D4193B3E00FD0C9F79C
:1018E000F6CF462F4F70405D4A3318F0495D31FD09
:1018F0004052419302D0A9F7EACFB4E0A69597955C
:10190000879577956795BA95C9F700976105710531
:1019100008959B01AC010A2E06945795479537957B
:101920002795BA95C9F7620F731F841F951FA01DD5
:1019300008959927882708952F923F924F925F929A
:101940006F927F928F929F92AF92BF92CF92DF92CF
:10195000EF92FF920F931F93CF93DF93CDB7DEB734
:10196000CA1BDB0B0FB6F894DEBF0FBECDBF0994C8
:101970002A88398848885F846E847D848C849B841F
:10198000AA84B984C884DF80EE80FD800C811B812D
:10199000AA81B981CE0FD11D0FB6F894DEBF0FBE5C
:0A19A000CDBFED010895F894FFCFCC
:1019AA0000005602200046454348413A202530327D
:1019BA00642F253032642F2530326420484F52413B
:1019CA003A20253032643A253032643A253032647E
:1019DA000D0A00416C61726D6120636F6E66696702
:1019EA00757261646120636F7272656374616D659B
:1019FA006E74650D0A004C69737461206465206316
:101A0A006F6D616E646F732064656C2072656C6FB4
:101A1A006A004F4E004F4646005345542054494DE4
:101A2A00450053455420414C41524D00256400560F
:101A3A00616C6F7220696E76616C69646F2E2053D7
:101A4A006567756E646F732028302D3539293A2001
:101A5A000056616C6F7220696E76616C69646F2ED4
:101A6A00204D696E75746F732028302D3539293AE7
:101A7A0020005469656D706F2065737461626C65CE
:101A8A006369646F20636F7272656374616D656EFA
:101A9A0074650D0A0056616C6F7220696E76616C0E
:101AAA0069646F2E20486F72612028302D323329E5
:101ABA003A2000416C61726D6120636F6E666967DE
:101ACA0075726164613A20253032643A2530326495
:101ADA003A253032640D0A00414C41524D410D0AFB
:021AEA000000FA
:00000001FF
