:100000000C9454000C9471000C9471000C947100C9
:100010000C9471000C9471000C9471000C9471009C
:100020000C9471000C9471000C9471000C9471008C
:100030000C9471000C9471000C944B060C9471009C
:100040000C9471000C9471000C9471000C9471006C
:100050000C9471000C9471000C9471000C9471005C
:100060000C9471000C947100001F000000001F0030
:10007000001F101010101F00001F181818181F0064
:10008000001F1C1C1C1C1F00001F1E1E1E1E1F000C
:10009000001F1F1F1F1F1F0003070F1F0F07030055
:1000A000181C1E1F1E1C180011241FBECFEFD8E005
:1000B000DEBFCDBF12E0A0E0B1E0E6E4F0E102C0B7
:1000C00005900D92A232B107D9F722E0A2E2B2E088
:1000D00001C01D92AA35B207E1F70E9494060C9464
:1000E00021080C940000FC010FB6F89460915602B0
:1000F0007091570280915802909159020FBE30972B
:1001000021F060837183828393830895823461F444
:1001100025B181E090E002C0880F991F6A95E2F74F
:100120008095822385B908952BB181E090E002C0CB
:10013000880F991F6A95E2F7809582238BB90895FD
:10014000823459F425B181E090E002C0880F991FF4
:100150006A95E2F7822B85B908952BB181E090E092
:1001600002C0880F991F6A95E2F7822B8BB9089518
:10017000823461F424B181E090E002C0880F991FBD
:100180006A95E2F78095822384B908952AB181E0C7
:1001900090E002C0880F991F6A95E2F7809582234C
:1001A0008AB90895823459F424B181E090E002C004
:1001B000880F991F6A95E2F7822B84B908952AB1B6
:1001C00081E090E002C0880F991F6A95E2F7822BC8
:1001D0008AB90895823459F483B190E002C09595AC
:1001E00087956A95E2F721E082278170089589B1A9
:1001F00090E002C0959587956A95E2F721E0822705
:10020000817008950F931F93CF93DF93C0E00DC0CB
:100210008C2F90E0FC01E35CFE4FDC01A75CBE4F3D
:100220006C9180810E94A000CF5FC43088F300E011
:1002300045C0C12FD0E0FE01E35CFE4FDE01A75CAC
:10024000BE4F6C9180810E94B800FE01EB5BFE4FB7
:10025000CF5BDE4F688180810E94B8001F5F01C0C4
:1002600010E0143030F3802F90E0FC01EF5BFE4F84
:10027000D081FC01EB5BFE4FC0816D2F8C2F0E9463
:1002800086006D2F8C2F0E94D200C0E014C02C2F4E
:1002900030E0F901E35CFE4FD901A75CBE4F6C91E1
:1002A00080810E94EA00882329F0802F880F880F20
:1002B0008C0F07C0CF5FC43050F30F5F043080F263
:1002C0008FEFDF91CF911F910F910895CF93DF931F
:1002D000EC010E9402018F3F31F48093220280934F
:1002E000040180E010C090912202891309C090910E
:1002F0000401891729F088838093040181E003C0F9
:100300008093220280E0DF91CF91089565B1982F0C
:100310009074492F50E055954795559547955595BB
:10032000479555954795982F9078292F30E0022EC4
:10033000232F000C221F330B000C221F331F962F7C
:10034000997F492B242B25B968B1982F9071492F9B
:1003500050E0559547955595479555954795982F54
:100360009072292F30E0359527953595279535954D
:100370002795962F997F492B242B28B99BB1926002
:100380009BB99BB191609BB925ED2A95F1F70000CF
:100390009BB19E7F9BB99BB19D7F9BB995ED9A9533
:1003A000F1F7000065B120E1829FC0011124AC018A
:1003B00040745527559547955595479555954795BB
:1003C000559547959C0120783327022E232F000C4A
:1003D000221F330B000C221F331F362F397F432B74
:1003E000242B25B948B19C012071332735952795D9
:1003F00035952795359527958072992795958795F9
:100400009595879595958795942F997F292B822B84
:1004100088B98BB182608BB98BB181608BB985ED66
:100420008A95F1F700008BB18E7F8BB98BB18D7FF0
:100430008BB995ED9A95F1F70000089565B1982F65
:100440009074492F50E0559547955595479555958A
:10045000479555954795982F9078292F30E0022E93
:10046000232F000C221F330B000C221F331F962F4B
:10047000997F492B242B25B968B1982F9071492F6A
:1004800050E0559547955595479555954795982F23
:100490009072292F30E0359527953595279535951C
:1004A0002795962F997F492B242B28B99BB19160D2
:1004B0009BB9EFE9FFE03197F1F700C000009BB175
:1004C0009E7F9BB9EFE9FFE03197F1F700C0000094
:1004D00065B1F0E18F9FC0011124AC014074552734
:1004E00055954795559547955595479555954795F4
:1004F0009C0120783327022E232F000C221F330B60
:10050000000C221F331F362F397F432B242B25B994
:1005100048B19C012071332735952795359527954E
:100520003595279580729927959587959595879507
:1005300095958795942F997F292B822B88B98BB11C
:1005400081608BB98FE99FE00197F1F700C000004F
:100550008BB18E7F8BB9EFE9FFE03197F1F700C0E7
:100560000000089581E00E941E0208950F931F93DA
:10057000CF93DF93009769F0D62F8C01C0E007C0BE
:10058000F801EC0FF11D80810E948601CF5FCD172D
:10059000B8F3DF91CF911F910F910895623031F040
:1005A000633031F0613029F4805C03C08C5E01C09F
:1005B0008C5A80680E941E020895EF92FF920F935A
:1005C0001F93CF93DF937C01862F90E0880F991FB4
:1005D000880F991F880F991F8064C0E0D0E00DC07C
:1005E000F701EC0FFD1F149101E0080F0E941E029D
:1005F000812F0E9486012196802FC830D10580F37B
:10060000DF91CF911F910F91FF90EF900895CF93BD
:10061000DF938FE59AEE0197F1F700C0000085B1F6
:10062000897F85B988B1897F88B91BB884B1866014
:1006300084B987B1866087B98AB183608AB985B188
:10064000897F85B988B1866088B98BB181608BB9A3
:100650008FE99FE00197F1F700C000008BB18E7F1A
:100660008BB98FE99FE00197F1F700C0000085B1D9
:10067000897F85B988B1866088B98BB181608BB973
:100680008FE99FE00197F1F700C000008BB18E7FEA
:100690008BB98FE99FE00197F1F700C0000085B1A9
:1006A000897F85B988B1897F846088B98BB1816081
:1006B0008BB98FE99FE00197F1F700C000008BB183
:1006C0008E7F8BB98FE99FE00197F1F700C00000A2
:1006D00088E20E941E028CE00E941E0260E0C0E0E0
:1006E0000AC0D1E0D60F8C2F90E088599F4F0E940E
:1006F000DD02C85F6D2FC034A0F3DF91CF91089564
:10070000109245020E9407030E94B20260E070E06E
:1007100080E090E00E94CE026AE070E089E491E01F
:100720000E94B60280E090E00E9473000E949C0745
:100730000895AF92BF92CF92DF92EF92FF920F9304
:100740001F93CF93DF9380914502823009F4BAC0A2
:1007500028F4882351F08130D9F164C2833009F440
:100760006EC1843009F4A3C15DC2809139029091B9
:100770003A02019690933A028093390284E492E01F
:100780000E946601882309F44DC2E0914402F0E022
:10079000EE5EFD4F80818A3209F044C280913902B9
:1007A00090913A020E949C071092310210923202FC
:1007B00010923302109234021092350210923602D7
:1007C000109237021092380281E0809345022AC2CB
:1007D0008091250290912602892B41F50E9497076E
:1007E00060910501709106010E94A00690934F024E
:1007F00080934E020E94B20260E070E080E090E0E0
:100800000E94CE02E0914E02F0914F02EE0FFF1FC8
:10081000E95FFE4F65E070E0808191810E94B60241
:1008200081E090E090932602809325028091270238
:1008300090912802803D27E0920731F00196909335
:10084000280280932702EEC10E94B20261E070E0AC
:1008500080E090E00E94CE02109243021092420289
:10086000109241021092400210923F0210923E02FA
:1008700010923D0210923C0210923B0282E0809363
:1008800045028091230290912402892B91F40E94C9
:1008900030062093290230932A0240932B02509372
:1008A0002C0260932D0270932E0280932F0290935E
:1008B0003002109228021092270210922602109203
:1008C0002502B0C184E492E00E946601882309F405
:1008D000A9C1E0914402F0E0EE5EFD4F80818332D9
:1008E00009F081C060E070E0809141029091420285
:1008F0000E94CE02E0913F02F0914002E05BFD4F8A
:10090000108280E592E00E94A707109240021092A8
:100910003F02E0914E02F0914F02EE0FFF1FE95FA0
:10092000FE4F0190F081E02D20913D0230913E027A
:10093000E20FF31F208130E08217930739F50E9400
:10094000860161E070E080E090E00E94CE0260E10C
:1009500070E084E591E00E94B60261E070E080E022
:1009600090E00E94CE0280913D0290913E0201965D
:1009700090933E0280933D02809141029091420209
:10098000019690934202809341021BC061E070E0A7
:1009900080E090E00E94CE0260E170E084E591E0AA
:1009A0000E94B60261E070E080E090E00E94CE021A
:1009B00080913B0290913C02019690933C0280937F
:1009C0003B0280913B0290913C02039719F483E033
:1009D0008093450280913D0290913E02059719F463
:1009E00084E080934502E0914402F0E0EE5EFD4F2A
:1009F000808190ED980F9A3008F014C120913F0249
:100A000030914002233031050CF00CC190E00E947F
:100A1000860180913F02909140029C012F5F3F4FE1
:100A20003093400220933F02E0914402F0E0EE5EFA
:100A3000FD4F2081FC01E05BFD4F2083F3C08091DE
:100A4000250290912602892BC1F40E94B20260E037
:100A500070E080E090E00E94CE0267E070E085E602
:100A600091E00E94B60281E090E09093260280938C
:100A70002502909324028093230280912702909173
:100A80002802883823E1920731F0019690932802DA
:100A900080932702C7C081E080934502109228020C
:100AA000109227021092260210922502BBC080915C
:100AB000250290912602892B09F08EC00E94B20275
:100AC00060E070E080E090E00E94CE0268E070E0BC
:100AD0008DE691E00E94B60261E070E080E090E077
:100AE0000E94CE020E943006A0902902B0902A02F5
:100AF000C0902B02D0902C02E0902D02F0902E029C
:100B000000912F02109130020E942E070F2EF8EE56
:100B1000AF2EF02D0F2EF3E0BF2EF02DC12CD12CD7
:100B2000E12CF12C00E010E00E94C5062093310278
:100B30003093320240933302509334026093350273
:100B4000709336028093370290933802822F932F4E
:100B500000E010E007C00F5F1F4F6AE070E00E94E6
:100B6000A006CB010097B9F761E070E0C8010E94D0
:100B7000CE0265E070E086E791E00E94B602D09177
:100B80003102C0913202780114C081E0E81AF10804
:100B900061E070E0C7010E94CE028D2F9C2F6AE0B9
:100BA00070E00E94A006D62FC72F805D90E00E94C3
:100BB00086011E141F044CF381E090E090932602FE
:100BC00080932502109224021092230261E070E0CB
:100BD000C80105960E94CE028091270290912802BA
:100BE000883823E1920731F0019690932802809390
:100BF000270218C00E94B20260E070E080E090E03E
:100C00000E94CE026AE070E089E491E00E94B602A0
:100C1000109245021092280210922702109226028A
:100C200010922502DF91CF911F910F91FF90EF90CD
:100C3000DF90CF90BF90AF90089584B5826084BD5F
:100C400085B5836085BD8FEF87BDEEE6F0E08081DE
:100C5000826080831092540281E08093550208954F
:100C6000209146023091470240914802509149023A
:100C700060914A0270914B0280914C0290914D021A
:100C8000089580915402882329F01092540281E043
:100C90008093550208951F920F920FB60F92112460
:100CA0002F933F934F935F936F937F938F939F9374
:100CB000AF932091460230914702409148025091F3
:100CC000490260914A0270914B0280914C029091CE
:100CD0004D02A1E00E942207209346023093470272
:100CE000409348025093490260934A0270934B022A
:100CF00080934C0290934D028091550281508093D5
:100D00005502811103C081E080935402AF919F91FD
:100D10008F917F916F915F914F913F912F910F90A4
:100D20000FBE0F901F9018950E941D060E94800311
:100D300078940E9441068823E1F30E949903F9CF39
:100D400097FB072E16F4009407D077FD09D00E9478
:100D5000370707FC05D03EF4909581959F4F089585
:100D6000709561957F4F0895A29FB001B39FC00118
:100D7000A39F700D811D1124911DB29F700D811DC7
:100D80001124911D0895689401C0E8948F929F9258
:100D9000CF93DF930E94D106DF91CF919F908F90E8
:100DA000089588249924F401E401B0E49F93AA27CC
:100DB0009A158B049C04ED05FE05CF05D007A1070D
:100DC00098F4AD2FDC2FCF2FFE2FE92D982C892EF4
:100DD000982F872F762F652F542F432F322F2227BE
:100DE000B85031F7BF9127C01B2EBF91BB27220FF0
:100DF000331F441F551F661F771F881F991F881CAC
:100E0000991CEE1FFF1FCC1FDD1FAA1FBB1F8A14DA
:100E10009B04EC05FD05CE05DF05A007B10748F0F2
:100E20008A189B08EC09FD09CE09DF09A00BB10B5C
:100E300021601A94E1F62EF49401AF01BE01CD01B8
:100E4000000C08950024A7FD00942A0F301D401DBA
:100E5000501D601D701D801D901D08952A193B09AD
:100E60004C095D096E097F09800B910B0895AA1B3F
:100E7000BB1B51E107C0AA1FBB1FA617B70710F085
:100E8000A61BB70B881F991F5A95A9F780959095B7
:100E9000BC01CD0108958F929F92AF92BF92CF92E5
:100EA000DF92EF92FF92CF93DF93EC01688179811B
:100EB0008A819B81611571058105910521F464E2A8
:100EC00079ED8BE597E02DE133EF41E050E00E94B2
:100ED000CD0749015A019B01AC01A7EAB1E40E9488
:100EE000EC076B017C01ACEEB4EFA50194010E940C
:100EF000FA07DC01CB018C0D9D1DAE1DBF1DB7FF98
:100F000003C00197A109B04888839983AA83BB8352
:100F10009F77DF91CF91FF90EF90DF90CF90BF90C0
:100F2000AF909F908F9008950E944B07089580E0A6
:100F300091E00E944B070895A0E0B0E0809300018B
:100F400090930101A0930201B09303010895FC0165
:100F500088279927E89421912032E9F3293010F06D
:100F60002E30C8F32B3241F02D3239F4689404C08E
:100F70000E94C507820F911D219120532A30C0F392
:100F80001EF4909581959F4F08957AE0979F902D3C
:100F9000879F802D910D11240895052E97FB1EF437
:100FA00000940E94E40757FD07D00E94FF0707FC4A
:100FB00003D04EF40C94E40750954095309521955C
:100FC0003F4F4F4F5F4F0895909580957095619575
:100FD0007F4F8F4F9F4F08950E94B406A59F900D9D
:100FE000B49F900DA49F800D911D11240895B7FF0B
:100FF0000C94EC070E94EC07821B930B0895A1E26E
:101000001A2EAA1BBB1BFD010DC0AA1FBB1FEE1F82
:10101000FF1FA217B307E407F50720F0A21BB30BCD
:10102000E40BF50B661F771F881F991F1A9469F749
:1010300060957095809590959B01AC01BD01CF01A5
:061040000895F894FFCFB3
:1010460001000000FF19007C01820188018E0194D5
:10105600019A01A001A601AC01B201B801BE01C40A
:1010660001CA01D001D601DC01E201E801EE01F47A
:1010760001FA01000206020C02030504024444447C
:1010860044040300074242424450524553494F4EDE
:1010960045202A002020202020202020202020203B
:1010A6002020202000646572726F74610076696387
:1010B600746F726961002073656773004172626FB5
:1010C6006C00426F746F6E004344794D4300436C6D
:1010D60061764500466163696C004761666173002D
:1010E600486F6A6173004C6942726F004C616E7A98
:1010F60061004E6965766500506552726F005065F5
:10110600634553005069416E6F005072594B65003C
:1011160052554544610053455249450053616C554B
:10112600640053616C75640053696C6C61005465AE
:10113600636C610056616C6F72005665726465007F
:10114600596E48527A0068415264440073696C6C67
:1011560061003132334134353642373839432A302B
:02116600234420
:00000001FF
