:100000000C943C000C9459000C9459000C94590029
:100010000C9459000C9459000C9459000C94AE01A6
:100020000C9459000C9459000C9459000C945900EC
:100030000C9459000C9459000C9459000C945900DC
:100040000C9459000C9459000C94D2010C94590052
:100050000C9459000C9459000C9459000C945900BC
:100060000C9459000C945900C900D300DD00E7003E
:10007000F100FB0005010F0111241FBECFEFD8E0F6
:10008000DEBFCDBF12E0A0E0B1E0E4E8F4E002C0E2
:1000900005900D92AC34B107D9F722E0ACE4B2E0A0
:1000A00001C01D92A235B207E1F70E9478010C94BD
:1000B00040020C94000083E480937C00EAE7F0E0C7
:1000C00087E8808380818064808380917A0086FDC8
:1000D000FCCF0895EAE7F0E080818064808380911E
:1000E0007A0086FDFCCF209178008091790090E025
:1000F000982F8827822B0895853608F084E6809310
:100100000001282F30E040914C02429FC001439FE4
:10011000900D1124E4E6F0E0BF010E94E10170932C
:1001200089006093880040914D02429FC001439F27
:10013000900D1124BF010E94E10170938B00609328
:100140008A0040914E02429FC001439F900D1124AE
:10015000BF010E94E10160935002089580934E0216
:1001600060934D0240934C02809100010E947C00FC
:10017000089581E091E00E946B01089590E0FC01F8
:10018000F197E830F10508F054C0EC5CFF4F0C9497
:10019000170240E060E08FEF0E94AE008DE791E033
:1001A0000E946B014AC040E06FEF80E00E94AE0009
:1001B00082E991E00E946B0140C04FEF60E080E077
:1001C0000E94AE0089EA91E00E946B0136C04FEFB9
:1001D0006FEF80E00E94AE008FEB91E00E946B0118
:1001E0002CC040E06FEF8FEF0E94AE0085ED91E0F4
:1001F0000E946B0122C04FEF60E08FEF0E94AE00C3
:100200008FEE91E00E946B0118C04FEF6FEF8FEF00
:100210000E94AE0088E092E00E946B010EC040E0B8
:1002200060E080E00E94AE008FE192E00E946B01EE
:1002300004C086E392E00E946B0180E791E00E9497
:100240006B01089584B1866284B981EF8093800048
:100250008BE08093810010928900109288001092A8
:100260008B0010928A0082E08093B0008093B100EE
:100270009BE99093B3008093700085B1806285B94B
:10028000089580914F028F5F80934F028F3F11F44A
:1002900010924F0290914F0280915002981720F4D3
:1002A00085B18F7D85B9089585B1806285B908953E
:1002B0001092C50087E68093C40088E98093C1004E
:1002C00086E08093C20008959091C00095FFFCCF16
:1002D0008093C6000895CF93DF93EC0103C00E9482
:1002E0006401219688818111FACFDF91CF91089521
:1002F0000E9458010E9422010E945B0078940E9493
:10030000B90040E060E080E00E94AE00DFEF809145
:100310005102882371F0C091C6008FEC8C0F883099
:1003200030F48C2F0E9464018C2F0E94BE0010922A
:1003300051020E946A009C01A4E6B0E00E941D02E6
:100340002FEF33E040E050E00E94F501C22FD217BA
:10035000F1F2822F0E947C00DC2FD9CF1F920F92E6
:100360000FB60F9211242F933F934F935F936F9388
:100370007F938F939F93AF93BF93EF93FF930E94CD
:100380004101FF91EF91BF91AF919F918F917F912B
:100390006F915F914F913F912F910F900FBE0F90F2
:1003A0001F9018951F920F920FB60F9211248F93E2
:1003B00081E0809351028F910F900FBE0F901F909C
:1003C000189597FB072E16F4009407D077FD09D0F7
:1003D0000E942C0207FC05D03EF4909581959F4F1A
:1003E0000895709561957F4F0895A1E21A2EAA1B7A
:1003F000BB1BFD010DC0AA1FBB1FEE1FFF1FA217D5
:10040000B307E407F50720F0A21BB30BE40BF50BD1
:10041000661F771F881F991F1A9469F7609570955A
:10042000809590959B01AC01BD01CF010895EE0F21
:10043000FF1F0590F491E02D0994A29FB001B39F96
:10044000C001A39F700D811D1124911DB29F700DDD
:10045000811D1124911D0895AA1BBB1B51E107C0EA
:10046000AA1FBB1FA617B70710F0A61BB70B881F44
:10047000991F5A95A9F780959095BC01CD010895D3
:04048000F894FFCF1E
:10048400644C6973746120646520636F6C6F72657A
:1004940073204C45440D0A31202D205245440D0A49
:1004A40032202D20475245454E0D0A33202D20423F
:1004B4004C55450D0A34202D204349414E0D0A3533
:1004C400202D20414D4152494C4C4F0D0A36202DD0
:1004D400204D4147454E54410D0A37202D205748A1
:1004E4004954450D0A38202D20424C41434B0D0AF6
:1004F40053656C656363696F6E653A20000D0A523B
:1005040045442073656C656363696F6E61646F0D48
:100514000A000D0A475245454E2073656C656363B6
:10052400696F6E61646F0D0A000D0A424C554520D7
:1005340073656C656363696F6E61646F0D0A000DAA
:100544000A4349414E2073656C656363696F6E614C
:10055400646F0D0A000D0A414D4152494C4C4F2025
:1005640073656C656363696F6E61646F0D0A000D7A
:100574000A4D4147454E54412073656C6563636978
:100584006F6E61646F0D0A000D0A57484954452087
:1005940073656C656363696F6E61646F0D0A000D4A
:1005A4000A424C41434B2073656C656363696F6E0B
:1005B40061646F0D0A000D0A436F6D616E646F20F4
:0C05C400696E76616C69646F0D0A0000BE
:00000001FF
